:020000040000FA
:060000000A128A11D52F3F
:100930000034FF3464008001840A04060319003483
:1009400004069B2C0034C034DF34003400340034FF
:1009500020340034FF340234FF34003400340134D6
:10096000FF34FF3400347E088A007F0882000A12B8
:100970008A11B3240A128A118000840A04087D06B1
:1009800003190034FF0A0319FE0AB72CF400F5011D
:10099000D52C7C08FF007F08831603138100E82C08
:1009A0001B30FF007F08F507E82C7408F200F30104
:1009B0007308003A0319DD2CD02C7208003A031991
:1009C000C92C013A0319E82C033A0319E82CD02C5E
:1009D0007508080041300A128A115C250A128A1132
:1009E000FF007F0883120313D2004E300A128A11CF
:1009F000DF260A128A11FF007F0883120313D20038
:100A00004A300A128A11DF260A128A11FF007F0873
:100A100083120313D20046300A128A11DF260A120B
:100A20008A11FF007F0883120313D2000130F00007
:100A30000030F10000300A128A11C6240A128A110D
:100A4000FF007F0883120313D2000B1D282D292DD0
:100A5000252D3030FF007F08F000FF30FF007F08B9
:100A6000F10001300A128A1111260A128A11FF00C0
:100A70007F0883120313D200FB30FF007F088B0531
:100A80000B1D432D442D402D3030FF007F08F0001A
:100A9000F10101300A128A1111260A128A11FF008F
:100AA0007F0883120313D200FB30FF007F088B0501
:100AB000162D0A128A110028F300F201F92D730A8B
:100AC00084000008FF007F08FC05762D8B17A030FE
:100AD000FF007F088B040F2EDF30FF007F088B059F
:100AE0000F2E1930FF007F08F2070F2E7308023E09
:100AF00084000008F000F1017108003A0319812D0B
:100B0000712D7008A03A0319662D7F3A03196C2DD8
:100B1000712D7308023E84000008F000F101710895
:100B2000003A0319942D0F2E7008A03A03190F2EC6
:100B30007F3A03190F2E0F2E7308023E840000081F
:100B4000F000F1017108003A0319A72D0F2E70086B
:100B5000A03A03190F2E7F3A03190F2E0F2E730A96
:100B600084000008F000F1017108003A0319B92D62
:100B70000F2E7008003A0319892D013A03199C2D94
:100B80000F2E7308023E84000008F000F101710886
:100B9000003A0319CC2D0F2E7008A03A03190F2E1E
:100BA0007F3A03190F2E0F2E7308023E84000008AF
:100BB000F000F1017108003A0319DF2D0F2E7008C3
:100BC000A03A03190F2E7F3A03190F2E0F2E730A26
:100BD00084000008F000F1017108003A0319F12DBA
:100BE0000F2E7008003A0319C12D013A0319D42DB4
:100BF0000F2E7308840083130008F000F1017108C0
:100C0000003A0319042E0F2E7008003A03195F2DC5
:100C1000013A0319AF2D033A0319E72D0F2E72087D
:100C20000800F500F4017808031D172E182ECD2EAC
:100C30002D2E831203138501462E83120313860182
:100C4000462E831203138701462E83120313880155
:100C5000462E831203138901462E7508F200F30114
:100C60007308003A0319352E462E7208003A03190C
:100C7000192E013A03191D2E033A0319212E013AA8
:100C80000319252E073A0319292E462E0130FF009D
:100C90007F08F807CD2E7008FF007F08831203132A
:100CA0008504DD2E7008FF007F088312031386047D
:100CB000DD2E7008FF007F08831203138704DD2EEA
:100CC0007008FF007F08831203138804DD2E70086C
:100CD000FF007F08831203138904DD2E0F30FF000D
:100CE0007F08F407DD2E7508F200F3017308003A5F
:100CF00003197B2E6E2E7208003A03194B2E013A0F
:100D00000319522E033A0319592E013A0319602E82
:100D1000073A0319672E6E2E7009FF007F088312B1
:100D200003138505DD2E7009FF007F08831203136E
:100D30008605DD2E7009FF007F08831203138705E7
:100D4000DD2E7009FF007F08831203138805DD2E56
:100D50007009FF007F08831203138905DD2E7508D3
:100D6000F200F3017308003A0319B72E6E2E7208D1
:100D7000003A03198C2E013A0319932E033A0319F2
:100D80009A2E013A0319A12E073A0319A82E6E2EA6
:100D90001330FF007F08F407DD2E7108F200F30125
:100DA0007308003A0319D52EC82E7208003A0319A9
:100DB000AF2EFF3A0319732EC82E74080800F300F3
:100DC000F201FA01FA0A7908031DE72EE82E1D2F19
:100DD000FD2E831603138501192F83160313860135
:100DE000192F831603138701192F83160313880104
:100DF000192F831603138901192F73088400831395
:100E00000008F000F1017108003A0319082F192FAA
:100E10007008003A0319E92E013A0319ED2E033A3E
:100E20000319F12E013A0319F52E073A0319F92E89
:100E3000192F0130FF007F08F9077308033E840073
:100E400083130008FF007F08831603139F007308B5
:100E500003192B2F2C2FCF2FBD2F7308023E840098
:100E60000008FF007F088504D32F7308023E84002A
:100E70000008FF007F088604D32F7308023E840019
:100E80000008FF007F088704D32F7308023E840008
:100E90000008FF007F088804D32F7308023E8400F7
:100EA0000008FF007F088904D32F0F30FF007F0860
:100EB000F207D32F730884000008F000F1017108D5
:100EC000003A0319642F552F7008003A03192D2F8B
:100ED000013A0319352F033A03193D2F013A03193B
:100EE000452F073A03194D2F552F7308023E8400F2
:100EF0000009FF007F088505D32F7308023E840098
:100F00000009FF007F088605D32F7308023E840086
:100F10000009FF007F088705D32F7308023E840075
:100F20000009FF007F088805D32F7308023E840064
:100F30000009FF007F088905D32F7308840000088B
:100F4000F000F1017108003A0319A72F552F70081E
:100F5000003A0319752F013A03197D2F033A03193B
:100F6000852F013A03198D2F073A0319952F552F15
:100F70001330FF007F08F207D32F730A84000008A4
:100F8000F000F1017108003A0319C72FB82F70085B
:100F9000003A03195A2FFF3A03199D2FB82F113029
:100FA000FF007F08F2077208080083135230FD002B
:100FB0000430FE00A230FF00413084000A128A1182
:100FC000B7240A128A110A128A1198240A128A1165
:100FD000FB000A128A1199240A128A11FC0020309F
:100FE000840041300A128A119A240A128A11F601E9
:100FF000F701F801F901FA0183010A128A11EA2CBA
:00000001FF
