:020000040000FA
:060000000A128A11E02F34
:1008BC0064008001840A04060319003404065F2CCA
:1008CC000034C734A03400340034003420340034F5
:1008DC00FF340234FF34003400340134FF34FF346D
:1008EC0000347E088A007F0882000A128A1177245D
:1008FC000A128A118000840A04087D060319003448
:10090C00FF0A0319FE0A7B2CFA00FB01C42C83128C
:10091C00031305087605FF00770884007F08800024
:10092C00DD2C8312031306087605FF00770884007C
:10093C007F088000DD2C8312031307087605FF0067
:10094C00770884007F088000DD2C831203130808CD
:10095C007605FF00770884007F088000DD2C831269
:10096C00031309087605FF00770884007F088000D0
:10097C00DD2C0E30FF007F08FB07DD2C7A08F80019
:10098C00F9017908003A0319CC2CBF2C7808003AED
:10099C0003198D2C013A0319972C033A0319A12C36
:1009AC00013A0319AB2C073A0319B52CBF2C770865
:1009BC00840000080319E32CE42CE82C770884004D
:1009CC008001800A7B08080041300A128A115E25DA
:1009DC000A128A11FF007F08FC004E300A128A119D
:1009EC00EA260A128A11FF007F08FC004A300A121C
:1009FC008A11EA260A128A11FF007F08FC00463091
:100A0C000A128A11EA260A128A11FF007F08FC00DA
:100A1C001030FF007F08F6007530FF007F08F700EC
:100A2C0002300A128A118A240A128A11FF007F08E6
:100A3C00FC002030FF007F08F6007430FF007F08B8
:100A4C00F70000300A128A118A240A128A11FF0058
:100A5C007F08FC007503031D342D352D4C2D7403BC
:100A6C00031D392D3A2D4C2D0C30FF007F08F6005C
:100A7C00FF30FF007F08F70001300A128A111C2694
:100A8C000A128A11FF007F08FC000E2D0C30FF00AB
:100A9C007F08F600F70101300A128A111C260A128F
:100AAC008A11FF007F08FC000E2D0A128A11002803
:100ABC00F900F801042E790A84000008FF007F0871
:100ACC00831603138100812D8B17A030FF007F0844
:100ADC008B047908043E84000008FF007F08F300B3
:100AEC001A2EDF30FF007F088B051A2E1930FF00FD
:100AFC007F08F8071A2E7908023E84000008F600D9
:100B0C00F7017708003A03198C2D7C2D7608A03A52
:100B1C0003196A2D7F3A0319772D7C2D7908023E33
:100B2C0084000008F600F7017708003A03199F2D9E
:100B3C001A2E7608A03A03191A2E7F3A03191A2E88
:100B4C001A2E7908023E84000008F600F701770897
:100B5C00003A0319B22D1A2E7608A03A03191A2E50
:100B6C007F3A03191A2E1A2E790A84000008F6000F
:100B7C00F7017708003A0319C42D1A2E7608003AAB
:100B8C000319942D013A0319A72D1A2E7908023E48
:100B9C0084000008F600F7017708003A0319D72DF6
:100BAC001A2E7608A03A03191A2E7F3A03191A2E18
:100BBC001A2E7908023E84000008F600F701770827
:100BCC00003A0319EA2D1A2E7608A03A03191A2EA8
:100BDC007F3A03191A2E1A2E790A84000008F6009F
:100BEC00F7017708003A0319FC2D1A2E7608003A03
:100BFC000319CC2D013A0319DF2D1A2E7908840024
:100C0C0083130008F600F7017708003A03190F2E3A
:100C1C001A2E7608003A0319612D013A0319BA2DE0
:100C2C00033A0319F22D1A2E78080800FB00FA017A
:100C3C007008031D222E232ED82E382E8312031358
:100C4C008501512E831203138601512E8312031337
:100C5C008701512E831203138801512E8312031323
:100C6C008901512E7B08F800F9017908003A031923
:100C7C00402E512E7808003A0319242E013A0319FC
:100C8C00282E033A03192C2E013A0319302E073A59
:100C9C000319342E512E0130FF007F08F007D82E97
:100CAC007608FF007F08831203138504E82E76086C
:100CBC00FF007F08831203138604E82E7608FF00DA
:100CCC007F08831203138704E82E7608FF007F0841
:100CDC00831203138804E82E7608FF007F08831222
:100CEC0003138904E82E0F30FF007F08FA07E82E63
:100CFC007B08F800F9017908003A0319862E792E41
:100D0C007808003A0319562E013A03195D2E033A5E
:100D1C000319642E013A03196B2E073A0319722E2C
:100D2C00792E7609FF007F08831203138505E82EC0
:100D3C007609FF007F08831203138605E82E7609D7
:100D4C00FF007F08831203138705E82E7609FF0046
:100D5C007F08831203138805E82E7609FF007F08AD
:100D6C00831203138905E82E7B08F800F901790832
:100D7C00003A0319C22E792E7808003A0319972EDF
:100D8C00013A03199E2E033A0319A52E013A0319B1
:100D9C00AC2E073A0319B32E792E1330FF007F08BF
:100DAC00FA07E82E7708F800F9017908003A0319D8
:100DBC00E02ED32E7808003A0319BA2EFF3A031905
:100DCC007E2ED32E7A080800F900F801F201F20AFF
:100DDC007108031DF22EF32E282F082F83160313F0
:100DEC008501242F831603138601242F83160313E6
:100DFC008701242F831603138801242F83160313D2
:100E0C008901242F7908840083130008F600F70168
:100E1C007708003A0319132F242F7608003A031988
:100E2C00F42E013A0319F82E033A0319FC2E013A59
:100E3C000319002F073A0319042F242F0130FF0048
:100E4C007F08F1077908033E840083130008FF0034
:100E5C007F08831603139F0079080319362F372F49
:100E6C00DA2FC82F7908023E84000008FF007F08A3
:100E7C008504DE2F7908023E84000008FF007F08FD
:100E8C008604DE2F7908023E84000008FF007F08EC
:100E9C008704DE2F7908023E84000008FF007F08DB
:100EAC008804DE2F7908023E84000008FF007F08CA
:100EBC008904DE2F0F30FF007F08F807DE2F79083A
:100ECC0084000008F600F7017708003A03196F2F29
:100EDC00602F7608003A0319382F013A0319402F76
:100EEC00033A0319482F013A0319502F073A0319F3
:100EFC00582F602F7908023E84000009FF007F08FC
:100F0C008505DE2F7908023E84000009FF007F086A
:100F1C008605DE2F7908023E84000009FF007F0859
:100F2C008705DE2F7908023E84000009FF007F0848
:100F3C008805DE2F7908023E84000009FF007F0837
:100F4C008905DE2F790884000008F600F701770880
:100F5C00003A0319B22F602F7608003A0319802F3C
:100F6C00013A0319882F033A0319902F013A0319F8
:100F7C00982F073A0319A02F602F1330FF007F081A
:100F8C00F807DE2F790A84000008F600F7017708CD
:100F9C00003A0319D22FC32F7608003A0319652F94
:100FAC00FF3A0319A82FC32F1130FF007F08F80751
:100FBC007808080083135230FD000430FE006630C0
:100FCC00FF00413084000A128A117B240A128A1114
:100FDC002030840041300A128A115E240A128A11D0
:100FEC00F001F101F201F301F401F50183010A12A0
:040FFC008A11EA2C40
:00000001FF
